:1000000019C02BC02AC029C028C027C026C025C0BF
:1000100024C023C022C021C020C01FC01EC01DC0DC
:100020001CC01BC01AC019C018C017C016C015C00C
:1000300014C013C011241FBECFEFCDBFDFE3DEBF5E
:100040001FE3A0E8BFE3E8EBF2E002C005900D92E9
:10005000A238B107D9F735D02DC1D2CF2091803F3A
:100060003091813FC9019695879520FD09C0809305
:10007000803F9093813F8091803F9091813F089590
:1000800024EB9227F4CF262F853608F084E630E45F
:10009000839FC001112464E670E0F8D060932C0ABD
:1000A00070932D0A253608F024E630E4239FC00122
:1000B000112464E670E0EAD06093280A7093290A5C
:1000C0000895CF93DF93CDB7DEB72797CDBFDEBFBF
:1000D0008CE08093010483E58093010A8FE390E034
:1000E0008093260A9093270A1092280A1092290AD0
:1000F00010922C0A10922D0A8BE08093000AAEDF3A
:1001000064EB70E0C3D07C0120E5E20EF11CA6DFB9
:1001100068EC70E0BBD06C0124E6C20ED11C67E332
:100120008CE3B1DF212C1D8287E38F832CE32E83A8
:10013000712C312C07E31CE365E1A62EB12C7DE088
:10014000872E912C332069F0602F80E09CDF8D8119
:10015000882321F081508D83811130C0312C1E8184
:100160002DC07CDFB50192D08A50412E512C480E13
:10017000511C87FD5A942BE5421651041CF05AE598
:10018000452E512C84E1481651041CF444E1442EC0
:10019000512C142D21E0E21AF10881F45FDFB40143
:1001A00075D08D5F8D835ADF64EB70E06FD07C017A
:1001B00020E5E20EF11C4E8233243394772071F057
:1001C00060E0812F60DF222019F02A94211032C0D4
:1001D0000F81332009F455C0712C2FC03FDFB501CA
:1001E00055D08A50602E712C680E711C87FD7A9450
:1001F0008BE5681671041CF03AE5632E712C2FE034
:10020000621671041CF42FE0622E712C062D81E021
:10021000C81AD108F1F622DFB40138D093E0292EB4
:10022000280E1CDF68EC70E031D06C0124E6C20EB1
:10023000D11C6F823320F9F0732C602F80E023DF14
:1002400019821A821B821C8289819A81AB81BC81AE
:1002500080329E44A105B10508F074CF0000898169
:100260009A81AB81BC810196A11DB11D89839A83BE
:10027000AB83BC83E9CF60E0812F05DF77247394E3
:10028000DFCF602F812FFFDE712CDACFAA1BBB1BC3
:1002900051E107C0AA1FBB1FA617B70710F0A61B86
:1002A000B70B881F991F5A95A9F780959095BC01A7
:0802B000CD010895F894FFCF81
:0202B800E1ACB7
:00000001FF
