:1000000019C020C01FC01EC01DC01CC01BC01AC00C
:1000100019C018C017C016C015C014C013C012C034
:1000200011C010C00FC00EC00DC00CC00BC00AC064
:1000300009C008C011241FBECFEFCDBFDFE3DEBF74
:100040004BD090C0DDCFE0E6F0E081818E7F98ED6F
:1000500094BF8183089584E080931604E0E0F6E085
:1000600084E182838FE0858381E0808386E08683DC
:10007000089584E080930104E0E0FAE08FEF90E0DF
:1000800086A397A380E890E084A795A784AF95AF57
:1000900083E4818389E0808308959C01AFEFB0E021
:1000A00055D02FEF33E040E050E02ED02115310540
:1000B0004105510561F0DA01C9018F3F9105A105A4
:1000C000B10548F08EEF90E0A0E0B0E0089581E047
:1000D00090E0A0E0B0E00895B6DFBDDFCADF81E0C8
:1000E00080930806C1E080910B0680FFFCCF8091D1
:1000F000100690911106D1DF90E080933C0A909316
:100100003D0AC0930806EFCFA1E21A2EAA1BBB1B23
:10011000FD010DC0AA1FBB1FEE1FFF1FA217B307D3
:10012000E407F50720F0A21BB30BE40BF50B661FE9
:10013000771F881F991F1A9469F7609570958095AD
:1001400090959B01AC01BD01CF010895A29FB00124
:10015000B39FC001A39F01D0B29F700D811D1124D8
:08016000911D0895F894FFCFF2
:00000001FF
