:1000000019C020C01FC01EC01DC01CC01BC01AC00C
:1000100019C018C017C016C015C014C013C012C034
:1000200011C010C00FC00EC00DC00CC00BC00AC064
:1000300009C008C011241FBECFEFCDBFDFE3DEBF74
:1000400025D097C0DDCFE0E0F4E08689887F868BFD
:1000500086898460868BE0E0F6E086E0868384E132
:10006000828383E0808381E08087089584E08093A9
:100070000104E0E0FAE083E481838FEF90E086A35F
:1000800097A314AE15AE89E080830895DCDFEEDF20
:1000900080910B0680FFFCCF81E080930B062091BE
:1000A00010063091110650E040E0542F432F322FBC
:1000B0002227C0E0D1E080910B0680FFFCCFD093D7
:1000C0000B060091100610911106AFE3B0E03BD093
:1000D00030E020E0322F212F102F0027600F711FFA
:1000E000821F931F9B01AC01E6E05695479537951B
:1000F0002795EA95D1F7FEE09695879577956795D0
:10010000FA95D1F76C307105D0F0633FA3E07A0720
:10011000C0F47695679576956795E62FF0E0CF0168
:100120008C1B910997FF03C09195819591090297C6
:1001300014F2E0933C0AF0933D0AC62FBCCF60E076
:10014000ECCF6FEFEACF09D0A59F900DB49F900D33
:10015000A49F800D911D11240895A29FB001B39F0B
:10016000C001A39F01D0B29F700D811D1124911D6C
:060170000895F894FFCF92
:00000001FF
